:100000000C942A000C9447000C9447000C94470071
:100010000C9447000C9447000C9447000C94470044
:100020000C9447000C9447000C9447000C94470034
:100030000C9447000C9447000C9447000C94470024
:100040000C9447000C9447000C9447000C94470014
:100050000C94470011241FBECFE5D8E0DEBFCDBF12
:1000600010E0A0E6B0E0E8EAFAE002C005900D92E8
:10007000AE36B107D9F710E0AEE6B0E001C01D9290
:10008000A137B107E1F70E94C4030C9452050C9408
:1000900000003E9A379A329A319A0895369A3699E4
:1000A000FECF84B190E045B1342F20E0822B932B1A
:1000B0000895843409F471C0853448F4823499F188
:1000C000833408F04DC0813409F083C00FC08236FC
:1000D00051F1833620F4813609F07BC007C08336A6
:1000E00009F43EC0843609F074C057C0413069F449
:1000F0002AB381E090E0AC0102C0440F551F6A951D
:10010000E2F7BA01622B6ABB08952AB381E090E05E
:10011000AC0102C0440F551F6A95E2F7BA01609521
:1001200062236ABB0895413069F427B381E090E00F
:10013000AC0102C0440F551F6A95E2F7BA01622B69
:1001400067BB089527B381E090E0AC0102C0440F83
:10015000551F6A95E2F7BA016095622367BB08955F
:10016000413069F424B381E090E0AC0102C0440F57
:10017000551F6A95E2F7BA01622B64BB089524B358
:1001800081E090E0AC0102C0440F551F6A95E2F790
:10019000BA016095622364BB0895413069F421B3CC
:1001A00081E090E0AC0102C0440F551F6A95E2F770
:1001B000BA01622B61BB089521B381E090E0AC01EC
:1001C00002C0440F551F6A95E2F7BA016095622399
:1001D00061BB0895843409F471C0853448F48234D5
:1001E00099F1833408F04DC0813409F083C00FC009
:1001F000823651F1833620F4813609F07BC007C086
:10020000833609F43EC0843609F074C057C04130CB
:1002100069F42BB381E090E0AC0102C0440F551F9C
:100220006A95E2F7BA01622B6BBB08952BB381E0AC
:1002300090E0AC0102C0440F551F6A95E2F7BA0185
:10024000609562236BBB0895413069F428B381E067
:1002500090E0AC0102C0440F551F6A95E2F7BA0165
:10026000622B68BB089528B381E090E0AC0102C026
:10027000440F551F6A95E2F7BA016095622368BB87
:100280000895413069F425B381E090E0AC0102C0EB
:10029000440F551F6A95E2F7BA01622B65BB0895BA
:1002A00025B381E090E0AC0102C0440F551F6A9570
:1002B000E2F7BA016095622365BB0895413069F4A5
:1002C00022B381E090E0AC0102C0440F551F6A9553
:1002D000E2F7BA01622B62BB089522B381E090E09D
:1002E000AC0102C0440F551F6A95E2F7BA01609550
:1002F000622362BB0895843409F44EC0853440F40F
:10030000823431F18334B0F5813409F057C00EC026
:100310008236F1F0833620F4813609F04FC006C0F2
:10032000833641F1843609F049C036C029B381E0F3
:1003300090E0062E02C0880F991F0A94E2F730E081
:100340008223932302C0959587956A95E2F70895D5
:1003500026B381E090E0062E02C0880F991F0A9410
:10036000E2F730E08223932302C0959587956A9542
:10037000E2F7089523B381E090E0062E02C0880FD3
:10038000991F0A94E2F730E08223932302C09595E7
:1003900087956A95E2F7089520B381E090E0062EF4
:1003A00002C0880F991F0A94E2F730E0822393235A
:1003B00002C0959587956A95E2F7089580E00895C3
:1003C000843409F43DC0853440F48234F9F0833438
:1003D00050F5813409F040C00CC08236B9F0833644
:1003E00018F48136C9F505C08336E9F08436A1F5E5
:1003F00027C02BB381E090E0AC0102C0440F551F31
:100400006A95E2F7BA0162276BBB089528B381E0D1
:1004100090E0AC0102C0440F551F6A95E2F7BA01A3
:10042000622768BB089525B381E090E0AC0102C06B
:10043000440F551F6A95E2F7BA01622765BB08951C
:1004400022B381E090E0AC0102C0440F551F6A95D1
:10045000E2F7BA01622762BB08958434D9F085348B
:1004600038F4823499F0833498F48134A1F40CC0C8
:10047000823661F0833618F4813669F405C083361C
:1004800039F0843641F406C06ABB089567BB08950D
:1004900064BB089561BB08958434D9F0853438F481
:1004A000823499F0833498F48134A1F40CC08236FC
:1004B00061F0833618F4813669F405C0833639F06B
:1004C000843641F406C06BBB089568BB089565BBD4
:1004D000089562BB08958434D9F0853438F48234A9
:1004E00099F0833498F48134A9F40CC0823661F019
:1004F000833618F4813671F405C0833639F08436BA
:1005000049F406C089B3089586B3089583B3089566
:1005100080B3089580E00895843409F471C085346F
:1005200048F4823499F1833408F04DC0813409F0E5
:1005300083C00FC0823651F1833620F4813609F032
:100540007BC007C0833609F43EC0843609F074C00E
:1005500057C0413069F42BB381E090E0AC0102C098
:10056000440F551F6A95E2F7BA01622B6BBB0895E1
:100570002BB381E090E0AC0102C0440F551F6A9597
:10058000E2F7BA01609562236BBB0895413069F4CC
:1005900028B381E090E0AC0102C0440F551F6A957A
:1005A000E2F7BA01622B68BB089528B381E090E0BE
:1005B000AC0102C0440F551F6A95E2F7BA0160957D
:1005C000622368BB0895413069F425B381E090E06F
:1005D000AC0102C0440F551F6A95E2F7BA01622BC5
:1005E00065BB089525B381E090E0AC0102C0440FE3
:1005F000551F6A95E2F7BA016095622365BB0895BD
:10060000413069F422B381E090E0AC0102C0440FB4
:10061000551F6A95E2F7BA01622B62BB089522B3B7
:1006200081E090E0AC0102C0440F551F6A95E2F7EB
:10063000BA016095622362BB089582E460E041E004
:100640000E94EA008FE99FE00197F1F700C00000E7
:1006500082E460E040E00E94EA008FE99FE00197B9
:10066000F1F700C000000895682F81E40E944C0259
:1006700082E461E040E00E94EA000E941D030895C8
:100680008FEF91EEA4E081509040A040E1F700C0D0
:10069000000081E461E00E942D0282E460E041E01C
:1006A0000E94590082E461E041E00E94590082E426
:1006B00062E041E00E94590082E462E040E00E9472
:1006C000EA0088E30E943403AFECB7E01197F1F73A
:1006D00000C000008EE00E9434038FEC97E0019789
:1006E000F1F700C0000086E00E943403AFECB7E0F1
:1006F0001197F1F700C000000895682F81E40E946F
:100700004C0282E461E041E00E94EA000E941D0385
:100710000895CF93DF93EC018881882331F02196EF
:100720000E947D0389918823D9F7DF91CF910895A5
:1007300081E00E9434038FE19EE40197F1F700C04D
:1007400000000895982F9150923070F4613170F448
:10075000662371F0813019F4862F81580CC08230E5
:1007600049F4862F815407C080E805C080E803C0A3
:1007700080E801C080E00E9434038FEC97E001978D
:10078000F1F700C0000008950E9440030E94490054
:1007900080E690E00E948903CAE0D0E00E944E000B
:1007A000BC0180E090E00E944D0420E030E040E891
:1007B0005EE30E94B3040E942104AB01BC0150938C
:1007C0006F0040936E004A305105C0F481E06DE047
:1007D0000E94A20380E30E947D0380916E009091AD
:1007E0006F00BE010E943E05805D0E947D038FED7B
:1007F0000E947D0383E40E947D03D0CF44365105DF
:1008000068F681E06DE00E94A20380916E009091F5
:100810006F00BE010E943E05862F805D0E947D0311
:1008200080916E0090916F00BE010E943E05805D38
:100830000E947D038FED0E947D0383E40E947D036F
:10084000ADCF70D088F09F5790F0B92F9927B7514E
:10085000A0F0D1F0660F771F881F991F1AF0BA9584
:10086000C9F712C0B13081F077D0B1E0089574C0FB
:10087000672F782F8827B85F39F0B93FCCF386957A
:1008800077956795B395D9F73EF4909580957095D7
:1008900061957F4F8F4F9F4F0895E89409C097FB54
:1008A0003EF490958095709561957F4F8F4F9F4F47
:1008B0009923A9F0F92F96E9BB279395F69587958B
:1008C00077956795B795F111F8CFFAF4BB0F11F44E
:1008D00060FF1BC06F5F7F4F8F4F9F4F16C08823F5
:1008E00011F096E911C0772321F09EE8872F762F2B
:1008F00005C0662371F096E8862F70E060E02AF06C
:100900009A95660F771F881FDAF7880F9695879557
:1009100097F9089557FD9058440F551F59F05F3FC0
:1009200071F04795880F97FB991F61F09F3F79F011
:1009300087950895121613061406551FF2CF469593
:10094000F1DF08C0161617061806991FF1CF869515
:100950007105610508940895E894BB2766277727F9
:10096000CB0197F908950BD078C069D028F06ED0EC
:1009700018F0952309F05AC05FC01124EECFCADFEA
:10098000A0F3959FD1F3950F50E0551F629FF001A2
:10099000729FBB27F00DB11D639FAA27F00DB11DFB
:1009A000AA1F649F6627B00DA11D661F829F222784
:1009B000B00DA11D621F739FB00DA11D621F839F0B
:1009C000A00D611D221F749F3327A00D611D231FE1
:1009D000849F600D211D822F762F6A2F11249F572F
:1009E00050408AF0E1F088234AF0EE0FFF1FBB1F52
:1009F000661F771F881F91505040A9F79E3F5105F1
:100A000070F014C0AACF5F3FECF3983EDCF38695FC
:100A100077956795B795F795E7959F5FC1F7FE2B9B
:100A2000880F911D9695879597F9089597F99F6777
:100A300080E870E060E008959FEF80EC0895002466
:100A40000A941616170618060906089500240A9433
:100A500012161306140605060895092E0394000CB9
:100A600011F4882352F0BB0F40F4BF2B11F460FF48
:100A700004C06F5F7F4F8F4F9F4F0895AA1BBB1B12
:100A800051E107C0AA1FBB1FA617B70710F0A61B8E
:100A9000B70B881F991F5A95A9F780959095BC01AF
:080AA000CD010895F894FFCF89
:0E0AA80074656D70657261747572653D000055
:00000001FF
